S01900004954495F46696E616C5F50726F6A6563742E73726563A6
S11300000C942A000C941A070C9447000C94DB01FE
S11300100C9447000C9447000C9447000C94470040
S11300200C9447000C9447000C9447000C94AF07C1
S11300300C9447000C9447000C9447000C94470020
S11300400C9447000C9447000C9447000C94470010
S11300500C94470011241FBECFE5D8E0DEBFCDBF0E
S113006011E0A0E6B0E0EEE6F2E102C005900D92E8
S1130070AC3AB107D9F721E0ACEAB1E001C01D9276
S1130080A43BB207E1F70E9426030C9435090C94B3
S1130090000087B1806487B987B18F7787B986B14B
S11300A0816086B986B1826086B986B1846086B97A
S11300B086B1806886B9089597B1907E97B997B153
S11300C0892B87B986B1806486B9349BFECF86B10B
S11300D0806186B984B195B1089541E063E080E020
S11300E00E947F00089541E063E080E00E94F000F8
S11300F0089540E063E080E00E94F00008954230FB
S113010008F06DC04130A1F5813089F028F08230CB
S1130110C9F0833011F108952AB381E090E002C060
S1130120880F991F6A95E2F7822B8ABB089527B33B
S113013081E090E002C0880F991F6A95E2F7822B54
S113014087BB089524B381E090E002C0880F991F13
S11301506A95E2F7822B84BB089521B381E090E095
S113016002C0880F991F6A95E2F7822B81BB08951C
S1130170813091F028F08230D9F0833029F108954C
S11301802AB381E090E002C0880F991F6A95E2F7D4
S1130190809582238ABB089527B381E090E002C052
S11301A0880F991F6A95E2F78095822387BB08958B
S11301B024B381E090E002C0880F991F6A95E2F7AA
S11301C08095822384BB089521B381E090E002C02E
S11301D0880F991F6A95E2F78095822381BB089561
S11301E0423008F06DC04130A1F5813089F028F02B
S11301F08230C9F0833011F108952BB381E090E08F
S113020002C0880F991F6A95E2F7822B8BBB089571
S113021028B381E090E002C0880F991F6A95E2F745
S1130220822B88BB089525B381E090E002C0880F3B
S1130230991F6A95E2F7822B85BB089522B381E06A
S113024090E002C0880F991F6A95E2F7822B82BB67
S11302500895813091F028F08230D9F0833029F16B
S113026008952BB381E090E002C0880F991F6A952E
S1130270E2F7809582238BBB089528B381E090E058
S113028002C0880F991F6A95E2F78095822388BB84
S1130290089525B381E090E002C0880F991F6A9504
S11302A0E2F78095822385BB089522B381E090E034
S11302B002C0880F991F6A95E2F78095822382BB5A
S11302C00895813079F028F08230A9F08330E1F08C
S11302D024C089B390E002C0959587956A95E2F7AA
S11302E08170089586B390E002C0959587956A95CC
S11302F0E2F78170089583B390E002C095958795E5
S11303006A95E2F78170089580B390E002C09595F4
S113031087956A95E2F78170089580E008956F3FAC
S1130320A1F4813049F028F0823049F0833051F053
S113033008958FEF8ABB08958FEF87BB08958FEFE1
S113034084BB08958FEF81BB0895813041F028F07C
S1130350823039F0833039F008951ABA089517BA03
S1130360089514BA089511BA0895E199FECF9FBB78
S11303708EBB6DBB8CB384608CBB8CB382608CBB36
S11303800895E199FECF9FBB8EBB8CB381608CBB7B
S11303908DB3089585B7877F85BF85B7846085BF92
S11303A085B78D7F85BF85B7816085BF08958BB77D
S11303B080648BBF08951F920F920FB60F92112481
S11303C00F900FBE0F901F9018958FB780688FBF46
S11303D008950F931F93CF93DF9300D000D0CDB730
S11303E0DEB7082F84E0898385E08A8386E08B83E7
S11303F087E08C8310E014C0402F50E0012E02C02F
S1130400559547950A94E2F74170E1E0F0E0EC0F6E
S1130410FD1FE10FF11D608180E00E94F0001F5F6D
S1130420143050F30F900F900F900F90DF91CF91F5
S11304301F910F91089541E063E081E00E94F00074
S11304408FE39FE10197F1F700C0000040E063E013
S113045081E00E94F0000895CF93C82F40E061E04E
S113046081E00E94F00040E062E081E00E94F00040
S11304708C2F82958F700E94E9010E941B028C2FA1
S11304800E94E9010E941B02CF910895CF93C82FC7
S113049041E061E081E00E94F00040E062E081E040
S11304A00E94F0008C2F82958F700E94E9010E94B7
S11304B01B028C2F0E94E9010E941B02CF91089518
S11304C02FEF83EF91E0215080409040E1F700C08E
S11304D0000082E00E94E9010E941B0282E00E9467
S11304E0E9010E941B0288E00E94E9010E941B02AC
S11304F08CE00E942C0281E00E942C020895EF926D
S1130500FF920F931F93CF937C01C0E00AC0C031C8
S113051019F480EC0E942C02F80180810E944602AA
S1130520CF5F87010C0F111DF80180818111EFCF7E
S1130530CF911F910F91FF90EF900895CF92DF928A
S1130540FF920F931F93CF93DF93CDB7DEB72A9714
S11305500FB6F894DEBF0FBECDBF8C0199235CF1BA
S1130560F12C01C0F82ECF2CD12CC8016AE070E028
S11305700E941209E1E0F0E0EC0FFD1FEC0DFD1DFF
S11305808083062F172F81E08F0D1016110654F368
S113059010E00EC0F601E11BF10981E090E08C0F40
S11305A09D1FE80FF91F8081805D0E9446021F5F36
S11305B0F11680F732C0992384F58DE20E94460239
S11305C088279927801B910B10E001C0122FC12EA0
S11305D0D12C6AE070E00E941209E1E0F0E0EC0F37
S11305E0FD1FEC0DFD1D8083862F972F21E0210F29
S11305F0181619065CF300E00EC0F601E01BF109C1
S113060081E090E08C0F9D1FE80FF91F8081805DD1
S11306100E9446020F5F101780F72A960FB6F894CF
S1130620DEBF0FBECDBFDF91CF911F910F91FF9021
S1130630DF90CF900895662329F0613011F4805C37
S113064001C080E080680E942C020895EF92FF921E
S11306500F931F93CF93DF9341E060E082E00E9409
S11306607F006FEF80E00E948F0141E061E081E054
S11306700E947F0041E062E081E00E947F0041E04F
S113068063E081E00E947F000E94600240E060E03D
S113069083E00E947F000E94E70641E065E083E07A
S11306A00E947F000E94A9060E9497060E944900AA
S11306B040E061E082E00E947F0088EE93E00E94C7
S11306C0C90660E087E00E941B0380E690E00E9478
S11306D07F0261E081E00E941B0384E690E00E94B7
S11306E07F022FEF88E09DE3215080409040E1F7A6
S11306F000C0000081E00E942C0261E680E090E0EE
S11307000E94B50162E681E090E00E94B50163E6D3
S113071082E090E00E94B50164E683E090E00E94EC
S1130720B50165E684E090E00E94B50166E685E0E7
S113073090E00E94B50167E686E090E00E94B50172
S113074068E687E090E00E94B50169E688E090E001
S11307500E94B5016AE689E090E00E94B50160E379
S113076084E190E00E94B50161E385E190E00E949C
S1130770B50162E386E190E00E94B50163E387E19D
S113078090E00E94B50164E388E190E00E94B50125
S113079065E389E190E00E94B50166E38AE190E0B7
S11307A00E94B50167E38BE190E00E94B50168E324
S11307B08CE190E00E94B50169E38DE190E00E9434
S11307C0B50181E090E09093AD018093AC0110E01D
S11307D0E12C83E790E00E947F020E94F206082F3A
S11307E00E9446022FEF89E698E121508040904014
S11307F0E1F700C0000081E00E942C02C0E0D0E0DC
S113080021C0CE010E94C10108131BC08DE790E0F6
S11308100E947F020E94F206F82E0E9446022FEFE9
S113082089E698E1215080409040E1F700C0000043
S113083081E00E942C02CE0144960E94C101F81668
S113084029F02196C431D105E0F202C0EE24E394EC
S113085021E0E21243C28EE791E00E947F028FEF13
S113086099E628E1815090402040E1F700C0000063
S113087081E00E942C0287E890E00E947F0261E000
S113088080E00E941B0388E990E00E947F020E949E
S1130890F206C82F60E088E00E941B038C2F0E94A0
S11308A046028FEF94E32CE0815090402040E1F722
S11308B000C0000081E00E942C02C13309F03FC057
S11308C089EA90E00E947F0261E080E00E941B03BD
S11308D080EB90E00E947F020E94F206C82F60E045
S11308E088E00E941B038C2F0E9446028FEF94E342
S11308F02CE0815090402040E1F700C0000081E0EE
S11309000E942C02C13361F488EB90E00E947F02C4
S113091080ED97E00E94C90681E00E942C02ABCFD3
S1130920C23309F0A8CF84EC90E00E947F0288EEE5
S113093093E00E94C90681E00E942C029CCFC2333E
S1130940D9F580ED90E00E947F0261E080E00E9492
S11309501B038BED90E00E947F020E94F206C82FD9
S113096060E088E00E941B038C2F0E9446028FEFF8
S113097094E32CE0815090402040E1F700C0000057
S113098081E00E942C02C13351F482ED90E00E9478
S11309907F020E949D0681E00E942C026CCFC2332C
S11309A009F069CF8DED90E00E947F020E94A306BA
S11309B081E00E942C025FCFC33309F044C087EE6C
S11309C090E00E947F020E94F206D82F0E94460205
S11309D08FEF94E32CE0815090402040E1F700C079
S11309E0000081E00E942C0288EF90E00E947F02C8
S11309F00E94F206C82F0E9446028FEF94E32CE077
S1130A00815090402040E1F700C0000081E00E9446
S1130A102C028091AC019091AD016D2F09960E943A
S1130A20B5018091AC019091AD016C2F4D960E945F
S1130A30B5018091AC019091AD0101969093AD0107
S1130A408093AC0118CFC43309F015CF81E00E9424
S1130A502C0289E091E00E947F0261E080E00E9424
S1130A601B0388E191E00E947F020E94F206C82FD6
S1130A7060E088E00E941B038C2F0E9446028FEFE7
S1130A8094E32CE0815090402040E1F700C0000046
S1130A9081E00E942C02C533E1F50E94E5010E9429
S1130AA0F60682E00E94CC060E946D0086E291E088
S1130AB00E947F028FE19EE40197F1F700C00000DD
S1130AC041E061E082E00E94F0000E9405079FEF90
S1130AD020E782E0915020408040E1F700C0000010
S1130AE061E081E00E941B0380E20E94460261E013
S1130AF082E00E941B0382E391E00E947F0261E096
S1130B0082E00E9461018111E0CF81E00E942C0209
S1130B10B2CEC633C1F540E060E080E00E947F00C1
S1130B2041E061E082E00E94F00060E080E00E9429
S1130B301B0386E391E00E947F0280E00E945C0038
S1130B40BC0180E090E00E94030823E23BED49EF02
S1130B505EE30E9491080E94D407CB010E949E028A
S1130B609FEF29E688E1915020408040E1F700C0E2
S1130B70000061E082E00E9461018111D6CF81E032
S1130B800E942C0278CEC73309F043C08EE391E073
S1130B900E947F0261E080E00E941B0384E491E0F4
S1130BA00E947F020E94F206C82F60E088E00E9443
S1130BB01B038C2F0E9446029FEF24E38CE091508C
S1130BC020408040E1F700C0000081E00E942C0238
S1130BD0C133C1F485E591E00E947F020E94A3061F
S1130BE088EE93E00E94C9069FEF24E38CE09150C5
S1130BF020408040E1F700C0000081E00E942C0208
S1130C00E12C7DC0C23309F036CE81E00E942C0273
S1130C1032CEC83309F02FCE81E00E942C0280E648
S1130C2091E00E947F029FEF20E782E091502040F4
S1130C308040E1F700C0000040E061E080E00E94F5
S1130C407F0041E061E082E00E94F00081E00E94C8
S1130C505C009C01220F331F220F331F820F931F4E
S1130C606FEF73E00E94FE08EB0163307105A8F09A
S1130C7081E00E942C028DE691E00E947F029FEFAA
S1130C8020E782E0915020408040E1F700C000005E
S1130C9040E060E082E00E94F0002397A8F481E045
S1130CA00E942C0285E791E00E947F029FEF20E7DB
S1130CB082E0915020408040E1F700C0000041E014
S1130CC060E082E00E94F00061E082E00E94610145
S1130CD08111BCCF81E00E942C02CDCD8CE791E044
S1130CE00E947F029FEF29E688E1915020408040D6
S1130CF0E1F700C0000081E00E942C021F5F133066
S1130D0009F067CD89E891E00E947F0261E080E00C
S1130D100E941B038AE991E00E947F0280E090E038
S1130D20DF91CF911F910F91FF90EF90089541E0D3
S1130D3062E080E00E947F00089541E062E080E08C
S1130D400E94F000089540E062E080E00E94F0001C
S1130D5008958FB580688FBD8FB58F7B8FBD8FB59C
S1130D608E7F8FBD8FB582608FBD8EB588608EBD3E
S1130D708EB580618EBD80E29EE497BD86BD8EB542
S1130D808E7F8EBD8EB582608EBD8EB58B7F8EBDFF
S1130D9008959BBD8ABD089593B7987F93BF93B779
S1130DA0916093BF12BE823021F489B7816089BFFC
S1130DB00895813059F483B78F7B83BF83B78860EC
S1130DC083BF8AEF8CBF89B7826089BF08958AB1D7
S1130DD080618AB98AB188608AB986E880BD83E374
S1130DE089B908955F9BFECF8CB1089541E060E01E
S1130DF081E00E947F0040E062E083E00E947F0087
S1130E000E94CA010E94D70108958091B101811105
S1130E1010C041E060E081E00E94F00088E28A9521
S1130E20F1F740E060E081E00E94F00081E080930F
S1130E30B10108951F920F920FB60F9211242F93B0
S1130E403F934F935F936F937F938F939F93AF934E
S1130E50BF93EF93FF938091B101813009F06EC08D
S1130E608091B001811109C012BE81E08093B0016C
S1130E701092AF011092AE0161C020E030E03091D9
S1130E80AE0182B7280F311D3695279536952795E3
S1130E9036952795AFE4BBE10E9426099695879580
S1130EA096958795969587959093B3018093B20113
S1130EB061E080E00E941B038091B2019091B30134
S1130EC00E949E028FE295E70197F1F700C00000AF
S1130ED08091B2019091B3019C01255131092930CF
S1130EE0310570F40E9473009FE72AE186E0915077
S1130EF020408040E1F700C000000E94790018C043
S1130F009C012B5031092930310570F40E94730083
S1130F109FEF20E782E0915020408040E1F700C03D
S1130F2000000E94790004C00B9714F40E9473001F
S1130F301092AF011092AE011092B001FF91EF91A7
S1130F40BF91AF919F918F917F916F915F914F91DD
S1130F503F912F910F900FBE0F901F9018951F92E5
S1130F600F920FB60F9211242F938F939F9380911A
S1130F70AE019091AF0101969093AF018093AE01C1
S1130F808A3D924049F412BE1092B1011092B00110
S1130F901092AF011092AE019F918F912F910F90FB
S1130FA00FBE0F901F9018950E94700888F09F57ED
S1130FB098F0B92F9927B751B0F0E1F0660F771F79
S1130FC0881F991F1AF0BA95C9F714C0B13091F06F
S1130FD00E948A08B1E008950C948A08672F782F3C
S1130FE08827B85F39F0B93FCCF386957795679534
S1130FF0B395D9F73EF490958095709561957F4FA0
S11310008F4F9F4F0895E89409C097FB3EF4909545
S11310108095709561957F4F8F4F9F4F9923A9F0CD
S1131020F92F96E9BB279395F6958795779567955C
S1131030B795F111F8CFFAF4BB0F11F460FF1BC0A0
S11310406F5F7F4F8F4F9F4F16C0882311F096E933
S113105011C0772321F09EE8872F762F05C06623E1
S113106071F096E8862F70E060E02AF09A95660F9A
S1131070771F881FDAF7880F9695879597F9089553
S113108097F99F6780E870E060E008959FEF80EC37
S1131090089500240A9416161706180609060895DA
S11310A000240A9412161306140605060895092E40
S11310B00394000C11F4882352F0BB0F40F4BF2BAF
S11310C011F460FF04C06F5F7F4F8F4F9F4F0895EF
S11310D057FD9058440F551F59F05F3F71F04795E5
S11310E0880F97FB991F61F09F3F79F087950895CA
S11310F0121613061406551FF2CF4695F1DF08C0E9
S1131100161617061806991FF1CF86957105610505
S113111008940895E894BB2766277727CB0197F9AD
S113112008950E94A4080C9457080E94490838F0B6
S11311300E94500820F0952311F00C9440080C9460
S1131140460811240C948B080E94680870F3959F3C
S1131150C1F3950F50E0551F629FF001729FBB27AA
S1131160F00DB11D639FAA27F00DB11DAA1F649F46
S11311706627B00DA11D661F829F2227B00DA11DF9
S1131180621F739FB00DA11D621F839FA00D611D7F
S1131190221F749F3327A00D611D231F849F600DA0
S11311A0211D822F762F6A2F11249F5750409AF0C9
S11311B0F1F088234AF0EE0FFF1FBB1F661F771F55
S11311C0881F91505040A9F79E3F510580F00C9420
S11311D040080C948B085F3FE4F3983ED4F3869563
S11311E077956795B795F795E7959F5FC1F7FE2BC0
S11311F0880F911D9695879597F90895AA1BBB1B97
S113120051E107C0AA1FBB1FA617B70710F0A61B02
S1131210B70B881F991F5A95A9F780959095BC0123
S1131220CD01089597FB072E16F4009407D077FD9F
S113123009D00E94FE0807FC05D03EF490958195E4
S11312409F4F0895709561957F4F0895A29FB001B7
S1131250B39FC001A39F700D811D1124911DB29FE6
S1111260700D811D1124911D0895F894FFCF87
S113126E4954490066696E616C2070726F6A6563D9
S113127E742100757365726E616D653A00706173E9
S113128E73776F72643A00312D446F6F7220202091
S113129E322D6C6967687400332D6164645573650F
S11312AE7220342D6D6F726500312D6F70656E0076
S11312BE322D636C6F736500646F6F72206F70658F
S11312CE6E656400646F6F7220636C6F7365640087
S11312DE312D6C69676874206F6E00322D6C6967EE
S11312EE6874206F666600656E746572207573652A
S11312FE726E616D653A2000656E74657220706160
S113130E7373776F72643A2000352D4469737420B9
S113131E20362D54656D7000382D4C4452202037E4
S113132E2D657869740044697374616E6365203D3C
S113133E200020636D0054454D50203D20006578FB
S113134E69743F00312D5965732020202020202000
S113135E322D4E6F005468616E6B596F75212100EA
S113136E4C4947485420535441545553004C45441A
S113137E204F4646004C4544204F4E00756E737503
S113138E636365737366756C006E6F206D6F726543
S113139E20747269616C7321210072657365742007
S10F13AE7468652073797374656D000029
S9030000FC
